S00C00006268616E642E683131FE
S12380004FCE20282003A700088C267C26F88E7FFFBD9E6B20FE3C308F3009C3FFF68F3539
S1238020ED00BD95EC830001FD21AE8300402F05CC04002016CC0001202DBD95F0BDC7A63E
S1238040ED08EC02ED062C07CC0080AE003839EC040505C320AA188FEC0818ED02EC061875
S1238060ED00EC04C30001ED041AB321AE2FCB4F5F20D8FC21AE393C300937363C3C30ECB4
S1238080040505C320AA188F18EC00ED0218EC021AEE02AE00381AEF02393C37363C3C3C10
S12380A030BD95EC830001FD21AE8300402F05CC0400201ECC0001204DEC06ED00EC02BD35
S12380C095F0ED04BDC5F71AEE0018E6002609CC0040383838383839EC043736EC00BDD045
S12380E09E3131830000261518CE2028E60358183AEC0018ED00EC02C300012009EC00C382
S1238100004CED0020C1ED02B321AE2FAC4F5F20C13C3736308F3008C3FFF88F35ED001843
S1238120CE2028E60958183A18EE0018EC0AED0418CE2028E60958183A18EE0018EC0EEDBB
S1238140061AEE0418AD001AEE02AE00381AEF02393C3736308F3008C3FFF08F35ED00BD50
S123816095EC830001FD21AEC501260CBDD26302FD21AE8300402F07CC0400AE0038394F3B
S12381805FED0E5C7E8208BDC5F7EC10ED04EC0605830001BD95F0ED0C1AEE0418E60026D1
S12381A005CC004020D5EC0C3736EC04BDD09E3131830000261B18CE2028E60758183AEC5E
S12381C00418ED001AEE0418EC0C260E1C0E012009EC04C3004CED0420BFEC0605BD95F0E6
S12381E0BDC7A6ED0AEC02ED082C05CC0080208BEC060505C320AA188FEC0A18ED02EC082E
S123820018ED00EC06C30001ED06B321AE2E037E81874F5F7E817B3C37363C3C3C3018CED8
S12382202028E60758183A18EE0018EC0CED002605CC0100203218CE2028E60758183A1831
S1238240EE0018EC0EED02EC060505C320AA188F18EC02373618EC003736EC021AEE001809
S1238260AD0031313131ED043838383838393C37363C30EC02202E18EC08830002270CEC46
S123828008271D18EC088300012615EC00C300103736EC003736CC3645BDC8BC31313131F2
S12382A0EC00C3004CED00188F18E60026C9383838393C3736308F3008C3FFF28F35ED0058
S12382C0CC267C206C18EC08830002270CEC0E275B18EC088300012653CC3643BDC8BC1AB7
S12382E0EE0618EC0AED0CCC0001ED0405E314188F18EC002729EC04BD8D5E1AEE0618EC20
S12383000E1AEE0C18AD00ED0AEC02ED08EC0A3736EC083736CC363EBDC8BC31313131ECA3
S123832004C30001ED041A8300042FC0EC06C3004CED06188F18E600268BAE0038393C3714
S123834036308F3008C3FFF48F35ED00CC32A8203F18EC08830002270CEC0C272E18EC0863
S1238360830001262618EC0AED0618EC0E1AEE0618AD00ED0AEC02ED08EC0A3736EC0837DB
S123838036CC3638BDC8BC31313131EC04C3004CED04188F18E60026B8AE0038393C373629
S12383A030EC083736EC063736EC003736BD8D89BDB5D3BDD4AC063838393C300937363C4E
S12383C03C30EC043736BD8D89BDB5A21AEE02AE00381AEF02393C3736EC02300837363C3D
S12383E03C3068076906690569041AEE041AEF02EC06AE00381AEF02390784102705CC008E
S1238400012003CC000039394D26035D27030F20010E3939C60F18FE223E18E70018FE22C7
S12384204018E60018FE224218E600C10A2FE5C60F18FE223E18E70018FE224018E60018CB
S1238440FE224218E600C10A2EE5C63418FE223E18E70018FE224018E60018FE224218E67D
S1238460004F393C308F3009C3FFF08F35ED00BD95EC8300012F05CC04002059EC00C3FFEC
S1238480F5BDB865EC00C3FFF5BDA611ED0ECC0001ED0205E300C3FFF5188F18EC002726A4
S12384A04F5F37363736C61E3736EC02BDB5D3BDD4AC064F5F37363736C61F3736EC02BDE4
S12384C0B5D3BDD4AC06EC02C30001ED021A8300042FC0EC0EAE003839CC006FBD8AEF39D9
S12384E0CC0063BD8AEF39CC001BBD8B7439CC001CBD8B7439CC006FBD8C3B39CC0063BD3D
S12385008C3B393C308F3009C3FFDA8F35ED00BD95EC8300022F05CC04002014EC00C3FF2D
S1238520F7BDB865EC00C3FFF7BDAC2FED1A2704AE003839BD95EC8300022607BD8016EDA8
S12385401A26EDCC0001ED04BD95EC8300022618EC040505E300C3FFE13736CC0001BD8034
S1238560771838BDD2F62019EC040505E300C3FFE13736CC00043736EC04BDB5A2313118CA
S12385803818ED02EC0218ED00EC04C30001ED048300042FB3EC00C3FFE13736C30016BD05
S12385A0B172208C3C308F3009C3FFF48F35ED00BD95EC8300012F05CC04002010EC00C3A8
S12385C0FFF7BDB865EC00C3FFF7BDAD12AE0038393C308F3009C3FFDC8F35ED00BD95ECC6
S12385E08300012F05CC04002014EC00C3FFF5BDB865EC00C3FFF5BDAC2FED222704AE001B
S12386003839CC0001ED020505E300C3FFE1188F4F5F18ED0218ED00EC02C30001ED021A7D
S12386208300042FE2EC00C3FFE13736C30014BDB17220CA3C308F3009C3FFEE8F35ED006C
S1238640CC267CBD8151ED04262FEC00C3FFF7BDB865CC0001ED06203CCC0001ED0205E394
S123866000C3FFF7188F18EC002717EC02BD8D5EEC06BD8217ED042704AE003839EC02BD90
S1238680B78FEC02C30001ED021A8300042FCF6C0726026C06BD8073A3062CBD4F5F20D95A
S12386A03C308F3009C3FFEA8F35ED00CC267CBD809AED142678EC00C3FFF5BDB865CC00F8
S12386C001ED062060CC407FBDC8BC4F5FED085CED0405E300C3FFF5188F18EC002733ECD6
S12386E004BD8D5EEC082710EC06BD81113736EC023736CC407A200EEC06BD81113736EC48
S1238700023736CC4076BDC8BC31313131CC0001ED08EC04C30001ED041A8300042FB36C09
S12387200726026C06BD8073A3062C994F5FAE0038393C308F3009C3FFF28F35ED00BD95BE
S1238740EC8300012F05CC04002038EC00C3FFF7BDB865CC0001ED0205E300C3FFF7188FC6
S123876018EC00270FEC02BD8D5EEC02BDB63BEC02BDB78FEC02C30001ED021A8300042F27
S1238780D74F5FAE0038393C308F3009C3FFF28F35ED00BD95EC8300012F05CC040020337F
S12387A0EC00C3FFF7BDB865CC0001ED0205E300C3FFF7188F18EC00270AEC02BD8D5EEC7B
S12387C002BDB603EC02C30001ED021A8300042FDC4F5FAE0038393C308F3009C3FFF28F8C
S12387E035ED00BD95EC8300012F05CC04002038EC00C3FFF7BDB865CC0001ED0205E30012
S1238800C3FFF7188F18EC00270FEC02BD8D5EEC02BDB67EEC02BDB78FEC02C30001ED02B3
S12388201A8300042FD74F5FAE003839BD95EC8300012F04CC0400395F3737CC267CBD8248
S12388406E31314F5F393C308F3009C3FFF48F35ED00BD95EC8300012F05CC04002016ECDA
S123886000C3FFF7BDB865EC00C3FFF737364F5FBD82B24F5FAE003839BD95EC8300012FF2
S123888004CC040039CC00013736CC267CBD826E31314F5F393C308F3009C3FFF48F35ED8E
S12388A000BD95EC8300012F05CC04002017EC00C3FFF7BDB865EC00C3FFF73736CC000159
S12388C0BD82B24F5FAE0038393C3C3C30CC32A8BD8151ED00270438383839CC0001ED0208
S12388E02013EC02BD8217ED002704383838396C0326026C02BD8073A3022CE6BDB59B4F3C
S12389005F383838393C308F3009C3FFF88F35ED00CC32A8BD809AED06262BCC0001ED04F5
S1238920201BEC04BD81113736EC023736CC4071BDC8BC313131316C0526026C04BD8073B6
S1238940A3042CDE4F5FAE003839BD95EC8300012F04CC040039BDB55EBDB59B4F5F39BD16
S123896095EC8300012F04CC040039BDB53C4F5F39BD95EC8300012F04CC040039BDB58726
S1238980BDB59B4F5F39BD95EC8300012F04CC0400395F3737CC32A8BD826E31314F5F3978
S12389A0BD95EC8300012F04CC0400394F5FBD833E4F5F39BD95EC8300012F04CC040039A4
S12389C0CC00013736CC32A8BD826E31314F5F39BD95EC8300012F04CC040039CC0001BD35
S12389E0833E4F5F39FEFFFE6E004F5F39CC407FBDC8BCCC4068BDC8BCCC4056BDC8BC4F08
S1238A005F393C308F3009C3FFF88F35ED00BD95EC8300022F05CC0400200FBD95EC830064
S1238A20022613BD8016ED062704AE003839CC0001BD80772003CCFFFFED06CC438F202424
S1238A40E407A4068300002716EC04C30002373618EC003736CC404EBDC8BC31313131ECDF
S1238A6004C3002FED04188F18EC0026D320BBCC00028D0B4F5F39CC00018D034F5F393CBF
S1238A8037363C3C30CC401EBDC8BC4F5FED02CC364D203518EC08A3042D26EC0218CE0037
S1238AA005BDD24E8300002606CC4015BDC8BCEC003736CC400FBDC8BC31316C0326026CA5
S1238AC002BDC5F7EC00C3003BED00188F18E60026C2CC3FDEBDC8BCCC3FB1BDC8BCCC3F81
S1238AE085BDC8BCCC407FBDC8BC38383838393C3736308F3008C3FFF08F35ED00BD95EC86
S1238B008300012F05CC04002066EC00C3FFF3BDB865EC103736EC00C3FFF3BDAD8831316A
S1238B20ED0EEC1083006F2645CC0001ED0205E300C3FFF3188F18EC0027264F5F3736373A
S1238B4036C61E3736EC02BDB5D3BDD4AC064F5F37363736C61F3736EC02BDB5D3BDD4ACCA
S1238B6006EC02C30001ED021A8300042FC0EC0EAE0038393C3736308F3008C3FFDA8F35A1
S1238B80ED00BD95EC8300012F05CC04002014EC00C3FFDFBDB865EC00C3FFDFBDAC2FED71
S1238BA0102704AE003839CC0001ED040505E300C3FFEB3736EC263736EC04BDB5A23131AD
S1238BC0183818ED02EC0218ED00EC04C30001ED041A8300042FD5EC00C3FFEB3736C3FF35
S1238BE0F4BDB1723131ED10EC2683001B2645CC0001ED0405E300C3FFDF188F18EC00270A
S1238C00264F5F37363736C61E3736EC04BDB5D3BDD4AC064F5F37363736C61F3736EC040F
S1238C20BDB5D3BDD4AC06EC04C30001ED041A8300042FC0EC10C4EF7E8BA33C3736308FB0
S1238C403008C3FFE48F35ED00BD95EC8300022F05CC04002014EC00C3FFF5BDB865EC001D
S1238C60C3FFF5BDAC2FED102704AE003839BD95EC8300022607BD8016ED1026EDCC00013A
S1238C80ED04BD95EC8300022612EC0405E300C3FFE93736CC0001BD80772016EC0405E365
S1238CA000C3FFE93736CC00033736EC04BDB5A23131183818ED00EC04C30001ED04830079
S1238CC0042FBFEC00C3FFE93736EC1C3736EC00C3FFF5BDB3D920923C4D2B0A37365F4FAE
S1238CE0373618302013373618305F4F18A30018ED00CCFFFF3736183018EC02CDEE08031A
S1238D00186D0027058F405020018F383838393C1830CDEE04038F38393C3C30CC0001ED46
S1238D20008D3BBD916518CE2258E60158183A4F5F18ED0018CE224EE60158183A5F18EDC5
S1238D400018CE2244E60158183A5F18ED00EC00C30001ED001A8300042FC63838393C377F
S1238D60363C30EC02FD21B083000105050505C3F000ED00FD223EC30001FD2242EC00C328
S1238D800002FD224038383839FC21B0393C3736308F3008C3FFF88F35ED005F3737CC00E3
S1238DA005BD8F043131CC00323736EC00C3FFFBBDC4DE31312049BDC5F74F5FBD8EE1C5A2
S1238DC002273DBD8F4DEC082745CC00A53736C608BD8F043131CC0008BD8EE1C1A5272F16
S1238DE018CE2258F621B158183A4F5F18ED0018CE224EF621B158183A5F18ED007E8E8929
S1238E00EC00C3FFFBBDC49583000027AA20B45F3737CC0008BD8F043131CC00173736FCC8
S1238E2021B0BDB5A231313736CC000FBD8F043131CC001E3736C618BD8F0431315F373739
S1238E40CC001CBD8F0431315F3737CC0019BD8F043131CC00303736C61FBD8F043131CC44
S1238E6000053736C61ABD8F043131CC00053736C61BBD8F043131CC00053736C607BD8FC2
S1238E80043131CC0063BD93DDAE0038393C300937363C3C3018CE2258F621B158183A1879
S1238EA0EC002605ED025C201318CE224EF621B158183A18EC00260EED02C6021AEE02AEAA
S1238EC000381AEF023918CE2244F621B158183A18EC002606ED02C60420E14F5FED0220AD
S1238EE0DB3C37363C30E60318FE223E18E70018FE224018E6004FED0018FE224218E600F6
S1238F00383838393C373630E60118FE223E18E700E60718FE224018E7003838393C373681
S1238F203C30EC02BD955DED00CA0837364F5F8DD338383838393C37363C30EC02BD955D1F
S1238F40ED0037364F5F8DBC3838383839CC00018DE4CC00048DDFCC00088DDACC00108D85
S1238F60D5CC00208DD039CC00018DCACC00088DC5CC00208DC0393C373630CC000EBD8EDC
S1238F80E11AEE0018E703CC000DBD8EE11AEE0018E702CC000CBD8EE11AEE0018E701C503
S1238FA0802704C6FF20015F18E7003838393C37363C304F5FBD8EE14FED001AEE0218E6E2
S1238FC0013736CC000CBD8F0431311AEE0218E6024F3736C60DBD8F0431311AEE0218E642
S1238FE0034F3736C60EBD8F0438383838393C373630CC0014BD8EE11AEE0018E703CC00B6
S123900013BD8EE11AEE0018E702CC0012BD8EE11AEE0018E701C5802704C6FF20015F1825
S1239020E7003838393C3C30CC0014BD8EE14FED00C613BD8EE1175FE300ED003838393C7C
S12390403736301AEE0018E6014F3736C615BD8F0431311AEE0018E6024F3736C616BD8F33
S12390600431311AEE0018E6034F3736C617BD8F04383838393C373630CC0029BD8EE11A9F
S1239080EE0018E703CC002ABD8EE11AEE0018E702CC002BBD8EE11AEE0018E701C580271A
S12390A004C6FF20015F18E7003838393C3736301AEE0018E6014F3736C62BBD8F0431317C
S12390C01AEE0018E6024F3736C62ABD8F0431311AEE0018E6034F3736C629BD8F043838B2
S12390E038393C3736301AEE0018E6014F3736C623BD8F0431311AEE0018E6004F3736C63C
S123910024BD8F04383838393C373630CC0034BD8EE11AEE0018E701CC0035BD8EE11AEEB4
S12391200018E7003838393C308F3009C3FFFA8F35ED004F5FED04ED02EC00C3FFFDBD8F5D
S1239140AE5F3737CC0013BD8F043131EC00C3FFFDBD90ACAE003839CC00013736C605BD7A
S12391608F043131395F3737CC0005BD8F04313139CC00033736C605BD8F043131393CCE38
S12391802234F621B1583A3CBDC49138ED00CE222AF621B1583A3CBD902538ED00F621B199
S12391A086183D4FC321B28F4F5FED14ED16CE21B2F621B186183D3A3CCE222AF621B158B6
S12391C03AEC0038ED024F5FED0038393C308F3009C3FFEA8F35ED00F621B186183D4FC3EC
S12391E021B2ED06188F18EC16ED0818CE100018EC0EED0CBD9025ED0AEC08C300014FC4BA
S123920003ED0E1AEE06E60958183A183CEC082604C60320015A581AEE06183AEC0C18A384
S12392200C3736EC0A6F026F031AEE06BDD49ABD8CD83131183818ED041AEE06E609581856
S12392403A18EC0483FFFF260318ED041AEE0618EC141A8300062C09C3000118ED147E9329
S123926001E60F58183A18EC04ED041AEE06E60958183A18EC04A304ED141AEE06E60F589F
S1239280183AEC0C18A30CED123736EC14BD8CD83131ED1083FFFF2602ED10CC001D3736D1
S12392A0FC21B0BDB5A23131A3102C551AEE06E60958183A18EC042F48CC001E3736FC2199
S12392C0B0BDB5A23131BDD48F2636CC000137365F3736C61E3736FC21B0BDB5D3BDD4AC42
S12392E006EC0A6F026F033736EC023736CC001F3736FC21B0BDB5D3BDD4AC06CC00012029
S12393001F1AEE06E60958183AEC0C18ED0CEC0E1AEE0618ED16EC0A18ED024F5F18ED00A7
S1239320AE0038393C3736308F3008C3FFF88F35ED00EC082727FC21B0830004271FBD91D5
S1239340CC8300002717CC00203736FC21B0BDB5A23131BDD48F2705CC00012049BD9025EC
S1239360ED0418CE222AF621B158183AEC0418A3006F026F03BDC85E18CE4081BDD3A72DD8
S12393802918CE222AF621B158183AEC0418ED0018CE2234F621B158183A183CBDC49118DB
S12393A03818ED004F5FAE003839CC00133736FC21B0BDB5A231313CCE000A028F38ED0640
S12393C018CE2234F621B158183A183CBDC491183818A300A30625CCCC000120C93C3009A5
S12393E037363C3C30CC00173736FC21B0BDB5A231313736CC000FBD8F043131CC000E37B6
S123940036FC21B0BDB5A231313736CC0022BD8F043131CC00103736FC21B0BDB5A2313136
S12394203736CC0020BD8F043131CC000F3736FC21B0BDB5A231313736CC0021BD8F0431B7
S123944031CC00113736FC21B0BDB5A231314FA702A7033736C626BD8F043131CC00113789
S123946036FC21B0BDB5A2313136EC02A7036F0217334FA702A7033736C627BD8F04313138
S1239480EC0483006F260437372005CC00013736FC21B0BDB5A23131475647564756475638
S12394A03736CC0028BD8F04AE0038393C308F3009C3FFF28F35ED00FC21B03736CC412ACE
S12394C0BDC8BC3131EC00C3FFF5BD8F77EC00C3FFF9BD8FEEEC00C3FFFDBD9075EC0C3702
S12394E036EC0A3736EC083736EC063736EC043736EC023736CC40F3BDC8BCBDD4AC0C4F7F
S12395005FBD8EE14F3736CC40E0BDC8BC3131CC0007BD8EE14F3736CC40CFBDC8BC313138
S1239520CC0022BD8EE14F3736CC40BFBDC8BC3131CC0021BD8EE14F3736CC40B0BDC8BC11
S12395403131CC0020BD8EE14F3736CC40A1BDC8BC3131CC409FBDC8BCAE0038393C3736CD
S123956030EC00BDD30E40854F5F2003CC0002383839CC000320F8CC000420F3CC00052065
S1239580EECCFFFF20E98D7B393C3430FC22622654BDC198830000274CBDC5F7BDC1C1E780
S12395A000C10D273EC1082704C17F2621FC22E68322E82311CC414EBDC8BCFC22E6830011
S12395C001FD22E620CBCC414CBDC8BC20C318FE22E618E700180818FF22E6FC22E6832313
S12395E06726AE8D2A313839FC226239FC22E4393C37363018CE2264E60158183A18EC0005
S12396003838394F5FFD2262CC22E8FD22E6393C3C304F5FFD22E418FE22E6186F00FC223E
S1239620E6830001FD22E6188F18E600C12027EB18CE22E81AEF00203A186F0018081AEF1C
S12396400018E600C12027F118CE2264FC22E47C22E526037C22E405183AEC0018ED001A11
S1239660EE00200518081AEF0018E600C12027035D26F118E60026CC18FE226418A60026BD
S123968003FD22E4CC0001FD22623838393C3C30BD95EC8300012F05CC04002010CC2368D4
S12396A0BDB865CC2368BDAC2FED002703383839CC23688D0DED00852027F2BDAD6AEC00C1
S12396C020EB3C3736308F3008C3FFEF8F35ED00CC0001ED085FED065CBDB4F2ED0EEC02BD
S12396E0ED0C2604EC0E2719FC25D2BDD2F6188FEC00C3FFFA188FBDD4C12305CC20002015
S123970009EC11BD9811ED062704AE003839EC11BD98D7ED0626F3EC11BD9A18ED062709D8
S1239720EC11BD9AF7EC0620E1BD9AF018CE100018EC0EED0A7E9803BDBAEF18CE1000EC40
S12397400A18A30E837FFF25F618EC0EC304CCED0ACC0001ED04BD8D5EBD91CC8300002750
S123976023CC00203736EC04BDB5A23131BDD48F2712EC04BDACB7EC0405E311188FCC003E
S12397800218ED00EC04C30001ED041A8300032FC5BDC20D830000279FBDC1E6E710BDBADE
S12397A0EFE610C0032731C03E2723C002270FC01E2720C002270FCC0800ED06201ABD9AF0
S12397C0B0BD9AD12015BD9AF0BD9AD1200DBD9AB02008BD9AF020034FED08EC082724ECD4
S12397E00C2604EC0E271CFC25D2BDD2F6188FEC00C3FFFA188FBDD4C12308CC2000ED0628
S12398004FED08EC08268AEC11BD9AF7EC067E970A3C3736308F3008C3FFF28F35ED004FAC
S12398205FED0CCC243EED0ACC0001ED0805E30E188F18EC00277BEC08BD8D5E4F5FBD8E0D
S12398408DED06EC02ED04EC0CBDD2F6188FEC00C3FFF5188FBDD47AED0C1AEE0AEC0AC368
S12398600002ED0A183CEC08BD9B21183818ED00CC00053736EC08BDB5A23131BDD48F27E6
S1239880101AEE0AEC0AC30002ED0ACC9B4518ED00CC00073736EC08BDB5A23131BDD48F75
S12398A027101AEE0AEC0AC30002ED0ACC9B9918ED00EC08C30001ED081A8300042E037EA7
S12398C0982D1AEE0AEC0AC30002ED0A4F5F18ED00EC0CAE0038393C3736308F3008C3FFCF
S12398E0F28F35ED004F5FED0CCC2412ED0ACC0001ED0805E30E188F18EC0026037E99BDC1
S1239900EC08BD8D5E4F5FBD8E8DED06EC02ED04EC0CBDD2F6188FEC00C3FFF5188FBDD450
S12399207AED0C1AEE0AEC0AC30002ED0A183CEC08BD9B21183818ED00CC00083736EC08A1
S1239940BDB5A23131BDD48F27101AEE0AEC0AC30002ED0ACC9BC118ED00CC000A3736EC16
S123996008BDB5A23131BDD48F27101AEE0AEC0AC30002ED0ACC9CDE18ED00CC000B3736BB
S1239980EC08BDB5A23131BDD48F27101AEE0AEC0AC30002ED0ACC9D9318ED00CC000C372E
S12399A036EC08BDB5A23131BDD48F27101AEE0AEC0AC30002ED0ACC9D9D18ED00EC08C326
S12399C00001ED081A8300042E037E98F3CC0002BDB4F2BDD48F27101AEE0AEC0AC300025D
S12399E0ED0ACC9E3D18ED00CC0005BDB4F2BDD48F27101AEE0AEC0AC30002ED0ACC9CE821
S1239A0018ED001AEE0AEC0AC30002ED0A4F5F18ED00EC0CAE0038393C3736308F3008C34C
S1239A20FFF28F35ED004F5FED0CED0A5CED0805E30E188F18EC002764EC08BD8D5ECC00FD
S1239A4063BD93DD4F5FBD8E8DED06EC02ED04EC0CBDD2F6188FEC00C3FFF5188FBDD47AA1
S1239A60ED0CBD8F67BD9171EC00C3FFFBBD90E2CC0008BD8F1D18CE2458E60958183A184F
S1239A803CEC08BDB49E183818ED0018CE2372E60958183ACCFFFB18ED00BD917EEC08C3CC
S1239AA00001ED081A8300042F85EC0CAE0038393C3C308D3BCC2412200B18EE0018AD00D8
S1239AC0EC00C30002ED00188F18EC0026EC3838393C3C30CC243E200B18EE0018AD00ECC6
S1239AE000C30002ED00188F18EC0026EC383839CC002ABDC258393C37363C30CC0001ED75
S1239B000005E302188F18EC002705EC00BDACB7EC00C30001ED001A8300042FE43838387B
S1239B20393C373630EC00BDD30E4151CC9E4F2003CC9E56383839CC9E5D20F8CC9E6420E1
S1239B40F34F5F20EF3C308F3009C3FFF48F35ED00BD8D89ED08CC00063736EC08BDB5A2A7
S1239B603131ED06EC02ED04BDC22DBDD2F6188FEC00C3FFF9188FBDD3ECED0A18CE2368A3
S1239B80E60958183A18EC008300022708EC00C3FFFFBD90E2AE0038393C3C30BDC240ED21
S1239BA000BD8D890518CE2368183A18EC00830002270BEC003736CC0022BD8F043838380C
S1239BC0393C308F3009C3FFEC8F35ED00BD8D89ED0A18CE237258183A18EC00ED0CBDC448
S1239BE091ED0EEC0ABDB49EED10E60C2C274F5FED1218CE23E0E60DCB0558E709E60B8676
S1239C000A3DEB09183AEC0E18ED0018CE237CE60DCB05206818CE23E0E60D58E709E60BCF
S1239C20860A3DEB09183AEC0E18A3006F026F03ED07EC02ED0518CE237CE60D5858E7048E
S1239C40E60B86143DEB04183AEC106F026F03BDD49A188FEC00C3FFF2188FBDD1D3ED129F
S1239C6018CE23E0E60D58E709E60B860A3DEB09183AEC0E18ED0018CE237CE60D5858E7AA
S1239C8009E60B86143DEB09183AEC1018ED024F5F18ED00C6093736EC0ABDB5A23131ED5E
S1239CA008EC02ED06EC12BDD2F6188FEC00C3FFF3188FBDD0D34FA702A703BDC258EC0C74
S1239CC0C30001ED0C8300052602ED0C18CE2372E60B58183AEC0C18ED00AE003839BD8D9E
S1239CE089BDC612BDC258393C308F3009C3FFF28F35ED004F5FED08ED0ACC00011AEE0A20
S1239D00BDD29ABDD2F6ED06EC02ED04CC0005BDB4F2188FEC00C3FFF7188FBDD392BDD4E5
S1239D208F275DEC08ED0CE60B18CE100018E730181F3080FBEC0ABDD30E416718CE1000F5
S1239D4018E6314FED08EC0CA3082A044050820083000A2ECEEC08BDC258202418CE10001B
S1239D6018E6324FED0820DE18CE100018E6334FED0820D218CE100018E6344FED0820C6BE
S1239D80EC0AC30001ED0A8300042C037E9CFAAE003839BD8D89BDB49EBDC243393C308F4D
S1239DA03009C3FFF08F35ED00BD8D89ED06BDB49EED0ACC0003BDB4F2BDD48F2704C601F3
S1239DC020015F4FED0E18CE2458E60758183AEC0A18A300ED0CCC000D3736EC06BDB5A2C6
S1239DE03131ED08188FEC0CBDD22BED0483007F2F05CC007F200AEC0483FF802C05CCFF25
S1239E0080ED044FE6052A01434FBDC258EC0E270D18CE2458E60758183AEC0A201818CEC4
S1239E202458E60758183A183CEC041AEE08BDD2B4183818E30018ED00AE0038393C343065
S1239E40343C304F5FBDC320BDC243AE003839CC0001BD8D5E39CC0002BD8D5E39CC000303
S1239E60BD8D5E39CC0004BD8D5E393C308F3009C3FFF28F35ED000FBDC5AB830000260FBF
S1239E80CC4379BDC8BCBDC5BACC4372BDC8BCBDC458BDC0F6BD9586BDC2FABDB4C9BD8DD6
S1239EA019BDC605BDB9950ECC436FBDC8BCCC4351BDC8BCCC4341BDC8BCCC432FBDC8BC74
S1239EC0CC430EBDC8BCCC42EFBDC8BCCC42D0BDC8BCCC42B2BDC8BCCC4294BDC8BCCC42D1
S1239EE08FBDC8BCBDC5F7BDBC37CC0001BDB4F2ED0AEC02ED082604EC0A2717FC25D2BD4D
S1239F00D2F6188FEC00C3FFFB188FBDD4C12303BDAD6ABD9589BDC1798300002720BD9643
S1239F2003BDC17DCC0004BDB4F2BDD48F27AFCC40003736CC4287BDC8BC313120A0BD9533
S1239F40E8830000279EBD95EC8300002605BD9603208B4F5FBD95F0ED0CBDB818830000E7
S1239F602613CC00203736CC4287BDC8BC3131BD96037E9EDEBDB859ED04BDB85D830000AF
S1239F80272F1AEE0418E600260C18EE0C18AD00BD96037E9EDEEC04C3000E3736EC0437AF
S1239FA036CC427FBDC8BC31313131BD96037E9EDE1AEE0418E6002613CC00203736CC42DB
S1239FC087BDC8BC3131BD96037E9EDE18EC0A261BBDB8618300002713CC10003736CC42CA
S1239FE087BDC8BC3131BD96037E9EDE1AEE0418EE0C18AD00ED06BDC179830000270ECC92
S123A0000004BDB4F2BDD48F27031C0640EC06270A3736CC4287BDC8BC3131BD9603BDC18D
S123A0207D7E9EDE3C308F3009C3FFF68F35ED004F5FED06ED08BD8408CC00643736EC00A0
S123A040C3FFF9BDC4DE3131CC428FBDC8BCBDC5F7BD9589BD95E8830000270ECC4276BD1B
S123A060C8BCBD9603BDC17D20DEEC00C3FFF9BDC49583000027D7EC063736CCFA14BDD401
S123A080E93131EC06C30101ED06CC00643736EC00C3FFF9BDC4DE313120B33C308F3009BB
S123A0A0C3FFF88F35ED004F5FED06C60A3736EC00C3FFFBBDC4DE3131CC4267BDC8BCBD76
S123A0C0C5F7EC00C3FFFBBDC4958300002730CC4251BDC8BCEC063736CCFA14BDD4E931A3
S123A0E031CC424BBDC8BCEC06C30101ED06CC000A3736EC00C3FFFBBDC4DE313120C0CC8E
S123A100424920B83C308F3009C3FFD28F35ED00CC0001ED045FED0205E300C3FFD9373663
S123A120CC000FBD8EE14F183818ED006C0526026C04EC02C30001ED021A8300142DD94FC0
S123A1405FED0205E300C3FFD9188F18EC003736EC023736CC4238BDC8BC31313131EC027E
S123A160C30001ED021A8300142DD8AE0038393C3C3C3C30CC421DBDC8BC4F5FED043736BB
S123A180CC4201BDC8BC31314F5FED021A83000127524F5FBD8EE14F3736EC023736CC4157
S123A1A0DCBDC8BC31313131CC0008ED00EC02E30037364F5FBD8F043131EC00270D4F5F8D
S123A1C0BD8EE14F3736CC41C42009BD8EE14F3736CC41A8BDC8BC3131EC00830008ED00F5
S123A1E02CCBEC02C30001ED021A8300052F9DEC04C30001ED041A8300142D823838383870
S123A200393C3C3C30CC0001ED020FBDC458BDC0F60ECC418DBDC8BCCC0001ED00CC000196
S123A220BDC4F6EC00C30001ED008300642FEE1AEE02183C18081AEF02CC417DBDC8BC317D
S123A2403120CFCCFFFFBDA3E839CC0001BDA3E8393C308F3009C3FFE88F35ED004F5FED17
S123A26016C60AED145FED08ED06BD95EC8300032F05CC0400200FEC00C3FFF3BDB865BD7D
S123A2808016ED162704AE003839BD95EC8300012F18CC0001BD8077ED14BD95EC83000388
S123A2A02608CC0002BD8077ED08CC0001ED0405E300C3FFF3188F18EC00270E18CE22446E
S123A2C0E60558183A4F5F18ED00EC04C30001ED041A8300042FD8EC06C30001C43F4FEDF0
S123A2E006C601ED04BD8D5EEC06BD8EE1EC04C30001ED041A8300042FEBEC14BDC54BBDEC
S123A300C179830000260BEC0827CC830001ED0826C5EC167EA2863C308F3009C3FFE88FEB
S123A32035ED004F5FED16C60AED145FED08ED06BD95EC8300032F05CC0400200FEC00C388
S123A340FFF3BDB865BD8016ED162704AE003839BD95EC8300012F18CC0001BD8077ED1402
S123A360BD95EC8300032608CC0002BD8077ED08CC0001ED0405E300C3FFF3188F18EC006A
S123A380270E18CE2244E60558183A4F5F18ED00EC04C30001ED041A8300042FD8EC06C3EE
S123A3A000014FED06C601ED04BD8D5EEC063736CC0029BD8F043131CC0029BD8EE1EC04DF
S123A3C0C30001ED041A8300042FDEEC14BDC54BBDC179830000260BEC0827C1830001ED51
S123A3E00826BAEC167EA34C3C3736308F3008C3FFE28F35ED004F5FED06ED1AC664ED1C32
S123A4005FED185CBDB4F2ED16EC02ED142604EC16271CFC25D2BDD2F6188FEC00C3FFF5F2
S123A420188FBDD4C12308BDAD6ACC2000200BBD95EC8300032F07CC0400AE003839EC0034
S123A440C3FFE9BDB865BD8016ED1A26EDBD95EC8300012F18CC0001BD8077ED1CBD95EC35
S123A4608300032608CC0002BD8077ED18CC0001ED0405E300C3FFE9188F18EC002728EC66
S123A48004BD8D5E4F5FBD8D8D18CE2244E60558183A4F5F18ED00EC04BDA58EEC063736B4
S123A4A0EC04BDA5D73131EC04C30001ED041A8300042FBEEC1E2F04C60120015F4FED1208
S123A4C0BDBAEFEC122708EC1EBDD2DD052006EC1EBDD2DD05E306ED06EC122604C60120DE
S123A4E0015F4FED12EC061A83001E2D0583001E20076D062C05C3001EED06CC0001ED04CD
S123A50005E300C3FFE9188F18EC00270BEC063736EC04BDA5D73131EC04C30001ED041A1E
S123A5208300042FDBEC1CBDC54BEC142604EC16271EFC25D2BDD2F6188FEC00C3FFF51866
S123A5408FBDD4C1230ACC2000ED1ABDAD6A2016BDC179830000260EEC1826037EA4C083AC
S123A5600001ED1826F6CC0001ED0405E300C3FFE9188F18EC002704EC048D72EC04C300EC
S123A58001ED041A8300042FE2EC1A7EA43A3C3736308F3008C3FFFA8F35ED00EC06BD8D68
S123A5A05E4F5FED04C610ED02EC00C3FFFBBD8FAE4F5FED04C620ED02EC00C3FFFBBD90C8
S123A5C03FCC00033736C605BD8F043131CC0010BD8F1DAE0038393C373630EC00BD8D5EAE
S123A5E0EC063736CC001CBD8F04383838393C373630EC00BD8D5EBD8F4DBD91582003BD53
S123A600C5F74F5FBD8EE1C50227F4BD91273838393C3736308F3008C3FFCE8F35ED00CCF3
S123A6200001ED0805E332188F18EC00273618CE2258E60958183ACC000118ED0018CE222B
S123A6404EE60958183ACC000118ED0018CE2244E60958183A5F18ED00EC08BD8D5ECC008C
S123A66001BD8D8DEC08C30001ED081A8300042FB31AEE3218EC08270EFC22562709CC00E3
S123A68004BD8D5EBD91584F5FED0ACC0001ED0805E332188F18EC00274D18CE224EE6097F
S123A6A058183A18EC00273F18CE2244E60958183A18EC002631BDC1798300002629EC0885
S123A6C0BDA98F830000271F18CE2244E60958183ACC000118ED00EC08BDAFA9BD9158BD95
S123A6E09127EC08BDACB7EC08C30001ED081A8300032F9CEC0AC30001ED0A8300032D8B83
S123A7004F5FED0ACC0001ED0805E332188F18EC00273418CE224EE60958183A18EC002794
S123A7202618CE2244E60958183A18EC002718BDC1798300002610EC08BDAFA9BD9158BDAB
S123A7409127EC08BDACB7EC08C30001ED081A8300032FB5EC0AC30001ED0A8300032DA4F0
S123A7601AEE3218EC082729FC22562724BDC179830000261CCC0004BDA98FFD224C27115C
S123A780CC0004BDAFA9BD9158BD9127EC08BDACB74F5FED165CED0805E332188F18EC00DA
S123A7A02726CC001A3736EC08BDB5A23131BDD48F27156C1726026C16EC0805E300C3FF64
S123A7C0D9188FCC0001200CEC0805E300C3FFD9188F4F5F18ED00EC080505E300C3FFEB9D
S123A7E0188FCC138818ED024F5F18ED00EC08C30001ED081A8300042F9ECC0001ED0AECC2
S123A80000C3FFEB3736C3FFEEBDB1723131EC00C3FFD9BDAFEDCC0001ED0805E300C3FFDC
S123A820D9188F18EC00273BEC0ABDD2F6ED06EC02ED04CC001A3736EC08BDB5A23131180C
S123A8408FEC00C3FFD1188FBDD4C12616EC0805E300C3FFD9188F4F5F18ED00EC1683005B
S123A86001ED16EC08C30001ED081A8300042FABEC16263FCC0001ED0805E332188F18ECBA
S123A880002769EC08BD8D5EBD9158CC001A3736EC08BDB5A23131BDD48F2723CC0019379F
S123A8A036EC08BDB5A23131BDD468ED1AEC02ED18202C6C0B27037EA7FF6C0A7EA7FFEC6A
S123A8C000C3FFE5BD8FEECC00193736EC08BDB5A23131188FEC00C3FFE5188FBDD3D3ECA7
S123A8E000C3FFE5BD903FEC08BDACB7EC08C30001ED081A8300042F80CC0001ED08050544
S123A900E300C3FFEB188F4F5F18ED0218ED00EC08C30001ED081A8300042FE2EC00C3FF35
S123A920EB3736EC32BDB17231314F5FED1CBDC1798300002653CC0001ED0805E332188F2E
S123A94018EC00273718CE2258E60958183A18EC0026051C1D01202418CE224EE609581836
S123A9603A18EC0026051C1D02201118CE2244E60958183A18EC0026031C1D04EC08C300F8
S123A98001ED081A8300042FB2EC1CAE0038393C373630BDC5F7CC0001FD2462EC00BDAA1F
S123A9A03CCC000ABDAA85CC000B3736CCFFFBBDAAB131318300042D23CC00033736C60533
S123A9C0BDAAB131318300032612BDAB9BEC00BDABB3EC00BDACB7CC0001200DBDC17983B1
S123A9E000002708BDAB9B4F5F383839CC000ABDAA85CC000B3736C605BDAAB131318300FC
S123AA00042D24CC00013736CCFFFBBDAAB131318300012612BDAB9BEC00BDABB3EC00BDF4
S123AA20ACB7CC000120C2FC246227B818CE224EE60158183A4F5F18ED0020A83C37363064
S123AA408F3008C3FFFA8F35ED00EC06BD8D5E4F5FED04C610ED02EC00C3FFFBBD8FAE4FCE
S123AA605FED04C620ED02EC00C3FFFBBD903FCC00033736C605BD8F043131CC0010BD8F97
S123AA801DAE0038393C373630EC003736CC001CBD8F0438BD917E2003BDC5F74F5FBD936E
S123AAA0248300002608BDC17983000027EB3838393C3736308F3008C3FFEA8F35ED00CCBF
S123AAC0001CBD8EE14FED045FED0EEC00C3FFF3BD8FEE4F5F7EAB8CEC0CED14EC0AED1264
S123AAE0EC16E304ED041A83001E2D0583001E20076D042C05C3001EED043736CC001CBD3D
S123AB008F043131BD917E2010BDC17983000027054F5F7EAB97BDC5F74F5FBD932483000E
S123AB200027E6EC00C3FFF3BD8FEEEC0AED02EC00C3FFFB188FEC0CBDD49AED08EC02ED01
S123AB40062604EC0827054F5FFD2462E6162C0FEC06ED02EC08BDD468ED08EC02ED06ECA9
S123AB600883001FEC06C20082002C0DEC0883000AEC06C20082002C0B4F5FED0EEC10C362
S123AB80000120086C0F26F56C0E20F1ED10A31C2C037EAAD8EC0EAE003839BD8F4DBD917C
S123ABA0582003BDC5F74F5FBD8EE1C50227F4BD9127393C3736308F3008C3FFF48F35ED2C
S123ABC000EC0CBD8D5EBD9127CC001037365ABD8F043131CC00023736C605BD8F0431314F
S123ABE0BDC5F7CC00C83736EC00C3FFFBBDC4DE31314F5FED062028BD8EE14FED04C51043
S123AC00261EC601ED06CC00173736EC0CBDB5A231313736CC000FBD8F04EC06AE003839CB
S123AC20EC00C3FFFBBDC49583000027CB20D73C3736308F3008C3FFF08F35ED00CC000115
S123AC40BDB4F2ED0EEC02ED0CBDBAEFEC0C2604EC0E271CFC25D2BDD2F6188FEC00C3FF19
S123AC60FB188FBDD4C12308BDAD6ACC200020434F5FED0A5CED0805E310188F18EC0027CE
S123AC8023EC08BD8D5E4F5FBD8E8DED06EC02ED04EC0ABDD2F6188FEC00C3FFF3188FBD72
S123ACA0D47AED0AEC08C30001ED081A8300042FC6EC0AAE0038393C3736308F3008C3FF91
S123ACC0F68F35ED00BD8D89ED08EC0ABD8D5ECC00143736EC0ABDB5A23131BDD48F27263D
S123ACE0EC00C3FFF9BD8FEEEC00C3FFF9BD8FAEEC00C3FFF9BD90ACBD8F67BD9171CC00F0
S123AD0001BD8F1D2003BD9158EC08BD8D5EAE0038393C3736308F3008C3FFF48F35ED003A
S123AD204F5FED0A5CED0805E30C188F18EC002726EC08BD8D5E4F5FBD8E8DED06EC02ED3D
S123AD4004EC0ABDD2F6188FEC00C3FFF7188FBDD47AED0ABD9158EC08C30001ED081A838B
S123AD6000042FC3EC0AAE0038393C3C30CC0001ED00BD8D5EBD9158EC00C30001ED001A5D
S123AD808300042FED3838393C3736308F3008C3FFCE8F35ED00CC0001BDB4F2ED2EEC0249
S123ADA0ED2C4F5FED305CED0805E332188F18EC0026037EAE3DEC0805E300C3FFD7188FE7
S123ADC0CC000118ED00EC08BD8D5EEC38BD93DDCC00223736EC08BDB5A231313736CC00B2
S123ADE022BD8F0431314F5FBD8E8DED06EC02ED04EC30BDD2F6188FEC00C3FFD1188FBDF8
S123AE00D47AED30BD8F67BD9171EC3883006F260E3737EC08BDB5A23131BDD468200CCC3E
S123AE2000013736EC08BDB5A23131ED2AEC00C3FFF7BD90E2CC0008BD8F1D200FEC0805E6
S123AE40E300C3FFD7188F4F5F18ED00EC08C30001ED081A8300042E037EADA9CC0064BDD8
S123AE60C54BCC0001ED0805E300C3FFD7188F18EC00273EEC08BD8D5EBD917EEC0805E327
S123AE8000C3FFE13736CC00023736EC08BDB5A23131183818ED00EC0805E300C3FFEB37E4
S123AEA036CC00213736EC08BDB5A23131183818ED00EC08C30001ED081A8300042FA84FCB
S123AEC05FED28BDBAEFEC2C2604EC2E271DFC25D2BDD2F6188FEC00C3FFF9188FBDD4C135
S123AEE02309BDAD6ACC20007EAFA5CC0001ED0805E300C3FFD7188F18EC0026037EAF89C3
S123AF00EC08BD8D5ECC0001BD93248300002648EC0805E300C3FFE1188F18EC00830100B1
S123AF20240E183CEC08BDC612183818A3002228EC0805E300C3FFEB188F18EC00830100F1
S123AF40240E183CEC08BDC612183818A3002508BDC179830000272CCC000E3736EC08BDE1
S123AF60B5A231313736CC0022BD8F043131EC08BDACB7EC0805E300C3FFD7188F4F5F1811
S123AF80ED002005CC0001ED28EC08C30001ED081A8300042E037EAEF0BDC5F7EC28270367
S123AFA07EAEBFEC30AE0038393C3736308F3008C3FFF28F35ED00CC0001ED0205E300C3FB
S123AFC0FFF53736EC0EA3022604C60120015F4F183818ED00EC02C30001ED021A83000416
S123AFE02FDAEC00C3FFF58D04AE0038393C3736308F3008C3FFE28F35ED00CC0001BDB4BE
S123B000F2ED18EC02ED164F5FED1C5CED0805E31E188F18EC0026037EB09AEC0805E300BE
S123B020C3FFEB188FCC000118ED00EC08BD8D5ECC006FBD93DDCC00183736EC08BDB5A289
S123B040313147564756475647563736CC0028BD8F0431314F5FBD8E8DED06EC02ED04ECBF
S123B0601CBDD2F6188FEC00C3FFE5188FBDD47AED1CBD8F67BD9171CC00183736EC08BDC2
S123B080B5A2313140508200ED1AEC00C3FFFBBD90E2CC0008BD8F1D200FEC0805E300C3F7
S123B0A0FFEB188F4F5F18ED00EC08C30001ED081A8300042E037EB00ECC0064BDC54BCCC4
S123B0C00001ED0805E300C3FFEB188F18EC002708EC08BD8D5EBD917EEC08C30001ED08F2
S123B0E01A8300042FDE4F5FED14BDBAEFEC162604EC18271CFC25D2BDD2F6188FEC00C348
S123B100FFF7188FBDD4C12308BDAD6ACC2000205DCC0001ED0805E300C3FFEB188F18ECD2
S123B120002732EC08BD8D5E4F5FBD93248300002608BDC1798300002716EC08BDACB7EC8C
S123B1400805E300C3FFEB188F4F5F18ED002005CC0001ED14EC08C30001ED081A830004B3
S123B1602FB4BDC5F7EC1427037EB0E6EC1CAE0038393C3736308F3008C3FFCA8F35ED002D
S123B180CC0001BDB4F2ED34EC02ED324F5FED2E5CED0805E336188F18EC0026037EB227EA
S123B1A0EC0805E300C3FFD7188FCC000118ED00EC08BD8D5EEC00C3FFD3BD8FEEEC08054D
S123B1C005E33C188FEC0C18A302EC0A18E20118A2002C05CC00632003CC006FBD93DD4F06
S123B1E05FBD8E8DED06EC02ED04EC2EBDD2F6188FEC00C3FFCD188FBDD47AED2EBD91580E
S123B200BD8F67EC00C3FFD3BD8FEEEC00C3FFD3BD8FAEBD9171EC080505E33CBD90ACCCA0
S123B2200001BD8F1D200FEC0805E300C3FFD7188F4F5F18ED00EC08C30001ED081A830058
S123B240042E037EB193CC0064BDC54BCC0001ED0805E300C3FFD7188F18EC00273EEC08AF
S123B260BD8D5EBD917EEC0805E300C3FFE13736CC00023736EC08BDB5A23131183818ED70
S123B28000EC0805E300C3FFEB3736CC00213736EC08BDB5A23131183818ED00EC08C300E4
S123B2A001ED081A8300042FA818CE100018EC0EED304F5FED2CBDBAEFEC322604EC34273B
S123B2C01DFC25D2BDD2F6188FEC00C3FFFB188FBDD4C12309BDAD6ACC20007EB3D5EC307E
S123B2E018CE100018A30E837FFF25F218EC0EC304CCED30CC0001ED0805E300C3FFD71856
S123B3008F18EC0026037EB3B9CC0001ED2CEC08BD8D5ECC0001BD93248300002648EC08DB
S123B32005E300C3FFE1188F18EC00830100240E183CEC08BDC612183818A3002228EC08F7
S123B34005E300C3FFEB188F18EC00830100240E183CEC08BDC612183818A3002508BDC160
S123B360798300002753EC00C3FFD3BD8FEEEC080505E33C188FEC0AED02EC0CBDD49ABD0F
S123B380C85EED06EC02ED04CC00123736EC08BDB5A23131188FEC00C3FFCD188FBDD4C1E1
S123B3A024031C2F10EC08BDACB7EC0805E300C3FFD7188F4F5F18ED00EC08C30001ED0877
S123B3C01A8300042E037EB2F9BDC5F7EC2C27037EB2B2EC2EAE0038393C3736308F3008F8
S123B3E0C3FFD88F35ED00CC0001ED0405E328188F18EC0026037EB47EEC0405E300C3FF12
S123B400F5188FCC000118ED00EC04BD8D5EEC00C3FFDDBD8FEEEC2E83006F261CEC04051A
S123B420E330188F18EC006F026F03188FEC00C3FFDD188FBDD3D3201AEC0405E330188F42
S123B44018EC006F026F03188FEC00C3FFDD188FBDD3C1E6062C12EC040505E300C3FFE12D
S123B460188F4F5F18ED022012EC040505E300C3FFE1188FEC0818ED02EC0618ED00EC0431
S123B480C30001ED041A8300042E037EB3ECEC00C3FFE13736EC28BDB172AE0038393C3782
S123B4A036308F3008C3FFF88F35ED00EC08BD8D5EEC00C3FFF9BD8FEEE6022C044F5F208D
S123B4C002EC04ED06AE0038393C3C30BDB55EBDB59BCC0001ED00BDB63BEC00BDB78FBDCB
S123B4E0C5F7EC00C30001ED001A8300042FE83838393C300937363C3C3018CE2464E605AB
S123B50058183A18EC00BDD2F61AEE02AE00381AEF02393C373630EC08830000EC06C201BB
S123B52082002505CC0080201018CE2464E60158183AEC0818ED004F5F383839CC000E377F
S123B54036CC2464BDC72C3131CC000E3736CC24643736CCF8E6BDD53A3131313139CC0004
S123B5600E3736CCF8E63736CC2464BDC89A31313131CC000E3736CC2464BDC77731318383
S123B580000026028D0139CC0060FD24645FFD2466FD2468FD246AFD246C39FC2464BDC145
S123B5A035393C3736308F3008C3FFFA8F35ED00EC06BDD2DD48C3242A188FE60D58183A11
S123B5C018EC00ED046F026F031AEE02AE00381AEF02393C373630EC0A830000EC08C20152
S123B5E082002505CC00802017EC00BDD2DD48C3242A188FE60758183AEC0A18ED004F5F80
S123B6003838393C373630CC00483736EC00BDD2DD48C3242ABDC72C3131CC01203736EC1A
S123B62000BDD2DD48C3242A3736EC00BDD2DD48C3F8ACBDD53A38383838393C373630CC43
S123B64000483736EC00BDD2DD48C3F8AC3736EC00BDD2DD48C3242ABDC89A31313131CC5D
S123B66000483736EC00BDD2DD48C3242ABDC77731318300002604EC008D033838393C37BE
S123B680363C30EC02BDD2DD48C3242AED00EC028300042656CC003C1AEE0018ED0218ED57
S123B6A000CC012C18ED304F5F18ED3218ED3418ED36CC0C4E18ED38CC013B18ED065F1812
S123B6C0ED04860118ED42CC062718ED08CC000A18ED1CC61E18ED445F18ED1E18ED205C7A
S123B6E018ED285F18ED2AC6022056CC00641AEE0018ED0218ED00CC012C18ED30CC0032DD
S123B70018ED32C60218ED345F18ED36CC426818ED38CC06A418ED06CC010018ED0418ED44
S123B72042CC213418ED08CC000A18ED1CC66418ED445F18ED1E18ED2018ED2818ED2AC662
S123B7400418ED22C63218ED24C61E18ED26CC000118ED2CCC05DC18ED3A4F5F18ED3C1899
S123B760ED3E18ED40C61F18ED2EC60118ED0A18ED0C5F18ED0E5C18ED1018ED1218ED1443
S123B78018ED165F18ED185C18ED1A383838393C300937363C3C30CC000E3736EC04BDB57F
S123B7A0A231313736CC0022BD8F043131CC00103736EC04BDB5A231313736CC0020BD8F20
S123B7C0043131CC000F3736EC04BDB5A231313736CC0021BD8F043131CC00113736EC040B
S123B7E0BDB5A231314FA702A7033736C626BD8F043131CC00113736EC04BDB5A23131363C
S123B800EC02A7036F0217334FA702A7033736C627BD8F04AE0038393C373630EC008D769E
S123B820ED00CC364DFD2592BDC5F7EC003736FC2592BDD09E31318300002605CC00012067
S123B8401518FE259218E6002708FC2592C3003B20D34FFD2592383839FC259239FC2594E4
S123B86039FC2596393C37363C30CC0001ED0005E302373618CE2598E60158183A18EC003D
S123B880183818ED00EC00C30001ED001A8300042FDD383838393C3736308F3008C3FFFAC8
S123B8A08F35ED004F5FFD2596FD25945CED0418CE2598E60558183A4F5F18ED00EC04C3CC
S123B8C00001ED048300042FE61AEE0618E600C03127545A27615A276E5A277CC00B273A64
S123B8E0C00826037EB969C00C276DFC259627037EB98FCC0001ED04CC00163736EC04BDF2
S123B900B5A23131BDD48F277718CE2598E60558183ACC000118ED002066CC0001FD259499
S123B92018081AEF0620A5CC0001FD2596FD259A18081AEF062095CC0001FD2596FD259CA7
S123B94018081AEF062085CC0001FD2596FD259E18081AEF067EB8CCCC0001FD2596FD25F2
S123B960A018081AEF067EB8CCCC0001FD2596FD259AFD259CFD259E18081AEF067EB8CC02
S123B980EC04C30001ED048300042E037EB8F8EC06AE0038393C3C3C3C3C3C304F5FFD259F
S123B9A0A2FCF8DC8370562608FCF8DE8332E32733CC000D37365F3736CCF8E2BDD5043157
S123B9C0313131CC00623736CCF8E0BDD4E93131CC32E33736CC70563736CCF8DCBDD50432
S123B9E031313131BDC0944F5FFD25A4ED06ED04203018CE25A858183A18EE001AEF02EC6C
S123BA000618A302EC0418E20118A200240F18EC02ED0618EC00ED04EC02FD25A4EC00C336
S123BA200001ED001AB325A62DC8CC00283736CC2000BDC7773131ED0827037EBACB18FEA5
S123BA4025A4272518EC02FD200418EC00FD2002CC00103736FC25A4C300043736CC20163F
S123BA60BDC89A31313131202B4F5FFD2004FD2002FD2000ED00E60158584FC32000188F2C
S123BA804F5F18ED1818ED16EC00C30001ED008300042DE24F5FED00E601584FC320001865
S123BAA08F4F5F18ED06E60158C32000188F4F5F18ED0EEC00C30001ED008300042DD9CCBA
S123BAC000283736CC2000BDC72C385F3737CC25DABDC4DE385F3737CC25D6BDC4DE38BDE2
S123BAE0C491FD25D4BDBC37383838383838393C308F3009C3FFF28F35ED004F5FED0CBDC1
S123BB00C491B325D4ED0A3CCE0064028F38ED066F026F0318CE2002BDD3C1EC06BDD2DD65
S123BB2064F325D4FD25D4EC062702C601EA0DA60CED0CCC25D6BDC49583000027234F5FDF
S123BB40BDC320FD25D21AB320002F08FD2000CC0001ED0CCC0BB83736CC25D6BDC4DE31F3
S123BB6031CC25DABDC49583000026037EBC244F5FED04C30001BD8D5E4F5FBD8E8DBDD483
S123BB808F27037EBC14EC04C30001BDB49EED08E605584FC32000188FEC0818A306ED0A1A
S123BBA02A044050820018E30E18ED0EE605584FC32000188F18EC0E3CCE03E8028F38ED4C
S123BBC006E60558584FC32000188FEC066F026F03188FC30016188FBDD3C1E605584FC345
S123BBE020003736EC0618CE03E8BDD2B4183818A30E4353C3000118ED0EE605584FC320B3
S123BC0000188FEC0818ED06EC062702C601EA0DA60CED0CEC04C30001ED041A830004248C
S123BC20037EBB73EC0C270BCC00283736CC2000BDC72CAE0038393C3430343C30BDBAEF65
S123BC40FC20001AB3F8E02F0A3736CCF8E0BDD4E9313118FE25A4271C18EC00ED0218ECE0
S123BC6002C30E1024066C0326026C0218CE2002BDD4C124028D04AE0038393C308F30094A
S123BC80C3FFF28F35ED004F5FED06FC25BC2F3018CE25BE830001FD25BC05183A18EC00D8
S123BCA0ED0618CE25A8FC25A67C25A726037C25A605183AEC0618ED00EC06264E7EBD89E3
S123BCC0CCFFFFED0AED084F5F203618CE25A858183A18EE0018EC02A30A18EC00E209A2FF
S123BCE008241918CE25A8E60558183A18EE001AEF0618EC02ED0A18EC00ED08EC04C300F5
S123BD0001ED041AB325A62DC220AEFC2004FD25E0FC2002FD25DE4F5FED04E60558584F0F
S123BD20C325DE3736E60558584FC32000188F18EC16ED0218EC18183818ED06EC0218EDE5
S123BD4004EC04C30001ED048300042DCECC00163736CC25DEBDC72C3131CC00163736CC69
S123BD6025DE3736EC06BDD53A31313131CC00163736CC25DE3736EC06BDC8763131313191
S123BD80ED0C2609EC06FD25A4AE0038394F5F204518CE25A858183A18EC00A3062632200B
S123BDA02318CE25A8E60558183A183C18CE25A8E6055C58183A18EC00183818ED006C0552
S123BDC026026C04FC25A6830001A3042ED37EBC87EC04C30001ED041AB325A62DB37EBCBC
S123BDE0873C3736308F3008C3FFF08F35ED0018CE100018EC0E18CE5683BDD2B4ED0ABDF7
S123BE00C491E30AED0E4F5FED0CED02EC0E18CE4629BDD3ECED0AEC02ED08EC0CED02ECD3
S123BE200E18CE4625BDD3ECED06EC02ED04EC0CED02EC0E18CE4621BDD3EC188FEC00C351
S123BE40FFFB188FBDD380188FEC00C3FFF3188FBDD380188FEC00C3FFF7188FBDD3801A11
S123BE60EE02AE00381AEF02393C373630FC25A2BDD30E462DEC06264CEC088347D026459A
S123BE80CC47D02042EC06263CEC088300172635CC00172032EC06262CEC08830C4926258C
S123BEA0CC0C492022EC06261CEC088304002615CC04002012EC06260CEC08830001260568
S123BEC0CC000120024F5FFD25A24F5F3838393C300937363C3C30EC04BDD30E4647FCF80D
S123BEE0E2ED02FCF8E42006FCF8E0BDD2F61AEE02AE00381AEF0239FC2002ED02FC2004B5
S123BF0020EC4F5FED0220E63C3736308F3008C3FFF88F35ED00FC25A28300012705CC0123
S123BF20002017EC08BDD30E4659EC103736EC0E3736CCF8E2BDD51F4F5FAE0038394F5FF3
S123BF40BDC320FD25D2BDD2F6188FEC00C30005188FBDD4C12309FC25D2ED104F5FED0EAB
S123BF60EC10FD20003736CCF8E0BDD4E93131CC0BB83736CC25D6BDC4DE20BCEC10FD20A0
S123BF8004EC0EFD2002CC00283736CC2000BDC72C31314F5FED04BDD2DD16C3F800ED0652
S123BFA0188F18E6004F53433736EC06BDD4CE3131EC04C30001ED041A83000A2DD9BDC004
S123BFC0944F5FFD25A47EBF3A7EBF383C300937363C3C30BD8D898300010505C320001883
S123BFE08F18EC16ED0218EC181AEE02AE00381AEF02393C373630FC25A28300012705CC3D
S123C00001002025BD8D898300010505C32000188FEC0818ED18EC0618ED16CC002837366C
S123C020CC2000BDC72C384F5F3838393C3C30CC46A0BDC8BC4F5F201918CE25BE58183ADC
S123C04018EC003736CC4691BDC8BC3131EC00C30001ED001AB325BC2DDFCC4681BDC8BCFA
S123C0604F5F201918CE25A858183A18EC003736CC4691BDC8BC3131EC00C30001ED001A0A
S123C080B325A62DDFFC25A43736CC466BBDC8BC383838393C3C3C3C304F5FFD25BCFD2573
S123C0A0A6ED02BDD2DD16C3F800ED00CC00163736EC00BDC7773131ED04271118CE25A849
S123C0C0FC25A67C25A726147C25A6200F18CE25BEFC25BC7C25BD26037C25BC05183AECD0
S123C0E00018ED00EC02C30001ED021A83000A2DB238383838393C3430CC25FAFD25F8FD55
S123C10025F64F5FFD25F4CCC26D3736CCFFD6BDD57731315F18CE100018E72CC62C18E757
S123C1202D18E62FE700313839BD83F98300002703BDC270393C373630EC00BDD30E46C69B
S123C1405F2029C6012025C6022021C603201DC6042019C6052015C6062011C607200DC658
S123C1600318CE100018E72B4F5F200A18CE100018E72BCC0001383839FC25F43920130F9A
S123C180BDC2D48300032609FC25F4830001FD25F40EFC25F42EE8393C3C300FFC25F4277F
S123C1A0044F5F2016FC25F6B325F82308FC25F8C300802003FC25F8B325F6ED000E3838B0
S123C1C0393C3C308D20ED001A8300612D0B1A83007A2E05830020ED001A83000D27048D6E
S123C1E077EC003838393C3C30FC25F61AB325F827FA0FBDC2D4ED000E1A830003260BFC3B
S123C20025F4830001FD25F4EC003838393C3C300FFC25F6B325F82308FC25F8C30080208D
S123C22003FC25F8B325F6ED000E3838393C3C308DB4ED00C58027051C00FFEC0038383975
S123C2408DA4393C373630E6004F8D0C4FE6012A01434F8D033838393C37363018CE1000CE
S123C260181F2E80FBE60118E72F3838398D013B3C3C343018CE1000181F2E205318E62F7C
S123C280E700FC25F61AB325F82203C30080B325F8830001ED01270B830001260AE600C17B
S123C2A003270438313839E600C10326087C25F526037C25F418FE25F818E700180818FFDD
S123C2C025F8FC25F883267A2606CC25FAFD25F8383138393C3C3018FE25F618E6001808FF
S123C2E018FF25F64FED00FC25F683267A2606CC25FAFD25F6EC003838398D68BDC3B08D1C
S123C30057CC000CBDC3DBCC0002BDC4008D55CC0032BDC54B8D41CC00EEBDC3DB8D4539A5
S123C3203C3736308F3008C3FFFA8F35ED008D28CC00AABDC3DBBDC427ED048300FF2F0319
S123C3401C04FF8D1FEC04BDD2DD05BDD2F61AEE02AE00381AEF02393CCE10001C09101C89
S123C360081038393CCE10001C09101D081038393CCE10001C090438393CCE10001D090443
S123C38038393C373630EC00270A18CE1000181C0804200818CE1000181D08043838393CB8
S123C3A0CE10001F080405CC000138394F5F38393CCE10001C09081C080838393CCE100010
S123C3C01C09081D080838393C3C308DEF8DD0ED008DDDBDC5F7EC003838393C37363C3093
S123C3E08D8ECC0001ED00EC02E401A4008D938DD768016900EC0083010026EB3838383935
S123C4003C37363C30BDC370CC0001ED00EC02E401A400BDC3828DB068016900EC00830260
S123C4200026EA383838393C3C3C3C304F5FED04BDC379CC0001ED008D8EED022702EC0076
S123C440EA05AA04ED0468016900EC0083020026E7EC0438383838393CCCC58B3736CCFF61
S123C460E2BDD57738CE1000EC0EC30C00ED1C1C2210C610E723E624C4035A2706CC46EC61
S123C480BDC8BC3839BD83F98300002703BDC58E39FC267A393C37363C3C30BD83F9ED0269
S123C4A00F1AEE0418EC00CDA3022311B3267A231D18EC02B3267A2215C6012012B3267A44
S123C4C0220818EC02B3267A2204C60120015F4FED00EC02BD8408EC0038383838393C377D
S123C4E03630FC267AE3061AEE0018ED02FC267A18ED003838393C3736308F3008C3FFFA98
S123C5008F35ED00EC063736EC00C3FFFB8DCF31312009BDC485BDC129BDC5F7EC00C3FFA3
S123C520FBBDC49583000027EAAE0038393C3736302005CC00648DBE1AEE00EC0083000142
S123C540ED00188C000026EB3838393C37363018CE100018EC0E2015BDC485BDC129BDC547
S123C560F718CE1000181F2320EE18EC1AC3013318ED1AC62018E7231AEE00EC00830001AE
S123C580ED00188C000026D63838398D013B3CCE10001F231013EC1CC30C00ED1C7C267B1C
S123C5A026037C267AC610E7233839FCFFFE83FF002604CCFFFF394F5F393C3C3C34304FEB
S123C5C05FED0086FFED02EC002021C34717188F18E600E7044F3736EC02BDD4CE3131EC62
S123C5E000C30001ED006C0326026C021A8301002DD938383138393CC655CE1000E73AC6AF
S123C600AAE73A38393CCE10001C39C0C6B4E73038393C3736308F3008C3FFF88F35ED009E
S123C6204F5FED04EC04ED06E609CB0318CE100018E730181F3080FBEC08BDD30E481718A7
S123C640CE100018E6314FED04EC06A3042A044050820083000A2ECCCC00153736EC08BD2A
S123C660B5A2BDD48F262DCC00FFA304ED04202418CE100018E6324FED0420CD18CE1000FC
S123C68018E6334FED0420C118CE100018E6344FED0420B5EC04AE0038393C300937363CDA
S123C6A03C30BD8D89BDC612BDD2F61AEE02AE00381AEF02393C3736308F3008C3FFFA8FFE
S123C6C035ED00BD8D89BDB49EED04BD8D890518CE2458183AEC0418ED006F026F031AEEF5
S123C6E002AE00381AEF02393C37363C3C30EC0AE304ED02CCFFFFED00201E18E600E80111
S123C7004F05C3482D188FE6004F18E80118A800ED00EC04C30001ED041AEE041AAC022561
S123C720DA63016300EC0038383838393C37363C30EC088300023736EC028DAC3131ED00DE
S123C740EC08E302830002188FEC0018ED00383838393C37363C30EC088300023736EC0215
S123C7608D863131ED003736EC08E302830002BDD4E938383838393C37363C30EC08830069
S123C780023736EC02BDC6E83131ED00EC08E302830002188F18EC00A3002604C6012001C0
S123C7A05F4F38383839BDD36B0D1AEE0D20081AEE0D18081AEF0D18E6004FBDC84D8300B4
S123C7C00026EC1AEE0D18E600E70CC12B2704C12D260518081AEF0D4F5FED0AED082034E9
S123C7E04F830030BDD2F6ED06EC02ED04EC08ED02EC0A18CE4A2DBDD3EC188FEC00C3FFD5
S123C800F6188FBDD380ED0AEC02ED081AEE0D18081AEF0D18E600C1302504C13923C1C18B
S123C8206C2704C14C260518081AEF0DE60CC12D260BEC08ED02EC0ABDD4682006EC08ED05
S123C84002EC0A1AEE02AE00381AEF02394FC109250AC10D2304C12026025C395F391AEE2D
S123C860022A124353188F435318082603C30001188F1AEF02393C30188FEC06EE045D2730
S123C8800F3618A600A000260D0818085A26F3324A2AEE4F3839463138393C301AEE06EE7F
S123C8A004188F183C5D270D36A60018A7001808085A26F5324A2AF0323338393C30093794
S123C8C0363C30EC00C300053736EC0237364F5FBDCA5CAE0038393C3736301AEE0020196C
S123C8E018E6004FBDD0C71AEE0018E70018081AEF00EC06830001ED0618E6002704EC06DF
S123C90026DE383839BDD36B091AEE0918EE001AEF046F0818E600C12D260A6C0818081AFD
S123C920EF0418E600C13026141AEE132705C63018E7001AEE0418081AEF04200A1AEE131D
S123C9402705C62018E7001AEE0418E600C12A262A18081AEF041AEE1118EE0018EC00ED40
S123C960061AEE1118EC00C3000218ED00E6062C306C084F5FA306ED0620264F5F2015ECAB
S123C98006BDD2D1ED0218E60018081AEF044FE302830030ED0618E600C1302504C1392304
S123C9A0DEEC061AEE0F18ED00EC041AEE0918ED00E6084FAE0038393C37363C301AEE0206
S123C9C01AEF00200A18081AEF00830001ED0818E6002704EC0826EDEC00A30238383839DC
S123C9E03C37363C301AEE02274718EC00ED00E60B2F1C1AEE0818E60018081AEF081AEE32
S123CA000018E70018081AEF006A0B26E620151AEE0818E6001AEE0018E70018081AEF00F6
S123CA206C0B26EB186F00EC001AEE0218ED002027E60B2F151AEE0818E60018081AEF082D
S123CA404FBDD06A6A0B26ED200E1AEE0818E6004FBDD06A6C0B26F238383839BDD36B2DEA
S123CA604F5FED11EC33ED02188F200518081AEF0218E6002704C12526F2EC02A333ED0425
S123CA8027183736EC333736EC2DBDC9E031313131EC04E311ED111AEE026C0326026C0226
S123CAA018E6002606EC11AE003839C60CE7066F0BEC00C3FFE7ED094F5FED0F1AEE02189C
S123CAC0E600C12D26051D06082019C12B26051C06102010C12026051C06022007C1232615
S123CAE00A1C060118081AEF0220D4EC00C3FFE53736C300223736C3FFD83736C3FFF5BD19
S123CB00C905BDD4AC0683000027031D06081AEE0218E600C12E262A1D060418081AEF028F
S123CB205F3737EC00C300073736C3FFDA3736C3FFF3BDC905BDD4AC0683000027044F5F19
S123CB40ED0F1AEE0218E600C16C2704C14C26521C064018081AEF0218E600C063C1162447
S123CB602FBDD302CBABCBC2CC2ACC2ACC2ACCBBCBC2CCBBCCBBCCBBCCBBCC2FCBBFCC4743
S123CB80CCBBCCBBCC8ECCBBCBC2CCBBCCBBCBBFC0E226037ECC2AC00227F9C01127207EC6
S123CBA0CCBBC16826B51C062020A81AEE3518E6011AEE0918E700CC0001ED077ECCC81CA1
S123CBC006801AEE0218E6004F3736CC4A3DBDD08A3131834A3D0518CE4A31183A18EC0075
S123CBE0ED041F0640173736EC353736EC09BDCF5C31313131ED07C601E70B201537361ABF
S123CC00EE3518EC003736EC09BDCEAE31313131ED071AEE0218E600C15826A0EC0737364F
S123CC20EC09BDC8D731317ECCC8C6067ECCC6EC111AEE3518EE0018ED004F5FED0FED0D66
S123CC40ED07C6047ECCC61F060105CC00102003CC000AED041C06881F064019C601E70B30
S123CC60EC043736EC353736EC09BDCF5C31313131ED072053EC0437361AEE3518EC0037E8
S123CC8036EC09BDCEAE31313131ED07203A1AEE3518EC00ED09EC0F27113736EC09BDC9C8
S123CCA0B83131ED07ED0FEC072007EC09BDD0B7ED0726031D0608C604200BEC02ED09CC26
S123CCC00001ED07C605E70BEC072E037ECE4B6F146F0C1AEE0218E600C164270AC1692736
S123CCE006E60BC10226581AEE0918E600C12D261018081AEF09E70CEC07830001ED072015
S123CD00101F06120C1F061004C62B2002C620E70CE60C2766EC0D830001ED0D1F06085B19
S123CD20E613C1302655CC00013736EC00C3FFDE3736EC2DBDC9E0313131316F0C203C1F1E
S123CD400601381F06803418E600C16F2718EC0D830002ED0DC630E70C18E600C170260292
S123CD60C678E71420151AEE0918E600C130270BEC0D830001ED0DC630E70C1F060862EC34
S123CD800DA307ED04EC0DA30FA3042C06EC0DA30FED04EC042F4A405082003736EC00C330
S123CDA0FFE53736EC2DBDC9E031313131EC04A30D4353C30001ED0DEC04E311ED112021C4
S123CDC0CC00013736EC00C3FFDE3736EC2DBDC9E0313131316C1226026C11E614E70C6F5A
S123CDE014E60C26DBE60BC104260A1AEE0218E600C170270AC630E7131AEE0218E600C11F
S123CE0067272FC147272BEC07A30FED042C233736EC00C3FFE53736EC2DBDC9E031313193
S123CE2031EC04A3114353C30001ED11EC04E30DED0DEC072F153736EC093736EC2DBDC942
S123CE40E031313131EC07E311ED111E06082FC620E713EC07A30DED042C233736EC00C30B
S123CE60FFE53736EC2DBDC9E031313131EC04E30DED0DEC04A3114353C30001ED11E60B53
S123CE802704C1042611EC35C30002ED35EC02C30001ED337ECA665A2607EC35C300042050
S123CEA0EAE60BC10527E6EC35C3000820DDBDD36B0DEC151A83FFDC2D061A8300242F052E
S123CEC04F5F7ECF586D152C0440508200ED068300012205CC000AED06EC0DED02EC152EB9
S123CEE017E6132C134F5FA313ED13C62D1AEE0218E70018081AEF02EC13ED04EC02ED0A7F
S123CF00EC00C3FFF6BDD02518CE4A44E609183A18E6001AEE0218E70018081AEF02EC04E0
S123CF2026DEEC02A30DED0420211AEE0A18E600E70C1AEE0218E6001AEE0A18E7001808DD
S123CF401AEF0AE60C1AEE0218E700EC02830001ED02A30A22D4EC04AE003839BDD36B11A0
S123CF60EC191A83FFDC2D061A8300242F054F5F7ED0216D192C0440508200ED0A830001A8
S123CF802205CC000AED0AEC11ED041AEE1718E6002C24EC192E2018EC00ED0218EC02BD35
S123CFA0D468ED08EC02ED06C62D1AEE0418E70018081AEF04200A18EC02ED0818EC00ED1A
S123CFC006EC04ED0EEC00C3FFF4BDD03718CE4A44E60D183A18E6001AEE0418E700180814
S123CFE01AEF04EC0626DEEC0826DAEC04A311ED0A20211AEE0E18E600E7101AEE0418E645
S123D000001AEE0E18E70018081AEF0EE6101AEE0418E700EC04830001ED04A30E22D4ECC7
S123D0200AAE0038393C188F18EC00CDEE0202CDEF0018ED0438393C8F3C3C3CEC00EE028C
S123D0403C8F3C4F5F301AEE0818ED0018EC0418ED02BDD10BEC041AEE0818ED0638CDEF2B
S123D0600038CDEF0238383838393C37363018CE1000181F2E80FBE60118E72FC10A2606E2
S123D080C60DE70120EC4F3838393C30EE048FA6002708081126F8098F38395F38393C308F
S123D0A0188FEE0418A6002709A000260708180820F2A0005F38393C8F3C0908E60026FB4F
S123D0C08F30A3003838394FC1612506C17A2202C020393C8D2A306F078D301AEE00EC02E1
S123D0E06D072703BDD1C38FC300088F35381AEF02393C8D0B306F078D11188FEC0420E0F4
S123D1003C3736EE023C30EE066E0018EC00266F18EC022720ED04EC008F188F8F261718C7
S123D120EC02CDEE0402CDEF0218ED044F5F18ED008F188F8F39CDEE04023CCDEE040318ED
S123D140ED0018EC02CDEF02CDEE04028F18E30218ED028F3824010818E300CDEF002505F1
S123D160CDA304251318A304CDEE0208CDEF022607CDEE0008CDEF0018ED044F5F20B28602
S123D18010A706EC00ED044F5F68036902690569045949CDA30025222715ED00EC0418A365
S123D1A002ED04EC0018E20118A2006C03200BED00EC0418A30224E9EC006A0626CB6F00DA
S123D1C06F0139188F4353188F4353C3000124021808393CBDD100306F07EC002A048D3995
S123D1E0630718EC0218EE002A048DD763073736183C18307ED0D93CBDD100306F07EC002D
S123D2002A048D15630718EC0218EE002A028DB33736183C18307ED0F84353630260032685
S123D220076C022603C30001ED00393C3430A7002A028D158F188F4D2A058D0D1863008FF7
S123D240028F186D0031382A0440508200393C3430A7002A028DF28F188F4D2A028DEA8F2B
S123D2600220DF3C364D2A028D1830EE03EE008F164F8F028F306C0426026C036D003138E9
S123D2802A0440508200393C364D2A028DF430EE03EE008F164F8F0220DB188C000825083D
S123D2A0175F188FC008188F188C0000270505180926FB393C183C373630E6033DE700EC68
S123D2C0013DEB00E700A601E6033DAB00383838393C3736050530E300053838393C3730CA
S123D2E0EE03E6003D3237E6003D30AB006C0426026C03313839375F4D2A0153E702E703D2
S123D30033391838183A183A18EE00186E0018383C3C3736CDEE001830EC00272E18EC00A0
S123D320A3022B171AA30024120518ED028F18E3028F1AEE04383838186E00EC000518EDB8
S123D340028F18E302C300048F20CEEC0227E318EE00188F1AA30627D98FC300048F180989
S123D36026F220CE18383C3730200618383C3730368F308F18E00082008F35ED00186E0161
S123D38018E3023736EC0218E90118A900ED0232333918E40318A4023736EC0218E40118B4
S123D3A0A400ED023233393CEE02CDAC002610CDA3028F0A0724048A08200284F7068F3827
S123D3C03918E30218ED02EC0218E90118A90018ED00393C37363018EC02A30018ED02385C
S123D3E03818EC00E203A20218ED00393C3736EE023C3C3C30A60718E6033DED02A605180C
S123D400E6033DED00A60618E6023DE300ED00A60718E6013DE300ED00A60718E6023DE3B6
S123D42001ED0124026C00A60618E6033DE301ED0124026C00A60718E6003DEB00E700A6B9
S123D4400618E6013DEB00E700A60518E6023DEB00E700A60418E6033DEB00E700183832BE
S123D460333838381AEF0239630263034353C3000124066C0326026C023918EA0318AA0233
S123D4803736EC0218EA0118AA00ED023233393CEE0226048F08098F383918A3023736ECCF
S123D4A00218E20118A200ED0232333918383C308F18EB0089008FED00323335388F186EEA
S123D4C0013CEE02CDAC002603CDA30238393C300937363C30CC00013736EC00C300063722
S123D4E036EC028D55AE0038393C300937363C30CC00023736EC00C300053736EC028D3AA4
S123D500AE0038393C300937363C30CC00043736EC00C300053736EC028D1FAE0038393C47
S123D520300937363C30CC00043736EC00C300053736EC028D04AE0038393C37363C3C3C7C
S123D54030EC06ED02EC0CED04EC0E20201AEE0418E6004F3736EC028D3831316C03260221
S123D5606C026C0526026C04EC00830001ED002EDC3838383838393C300937363C30CC005E
S123D580023736EC00C300053736EC028DACAE0038393C37363C30BD83F9ED000F1AEE025D
S123D5A018E600E409E109272BC61618CE100018E73BE6091AEE0218E700C61718CE100069
S123D5C018E73BCC000ABDC54B5F18CE100018E73B1AEE0218E600E1092728C60218CE10DC
S123D5E00018E73BE6091AEE0218E700C60318CE100018E73BCC000ABDC54B5F18CE100004
S10FD60018E73BEC00BD840838383839CA
S123267C530000000000000000028E8D0000000043757272656E74206D6F746F722073748F
S123269C6174650000000000000000000000000000000000000000000000000000000000E0
S12326BC00000000000000000000000050000000000000000002C6B5000000004375727291
S12326DC656E74206D6F746F7220706F736974696F6E0000000000000000000000000000AD
S12326FC000000000000000000000000000000000000000000000000534700000000000020
S123271C0002C69A0000000043757272656E742073747261696E2067617567652072656122
S123273C64696E6700000000000000000000000000000000000000000000000000000000D7
S123275C000000004D4F560000000000000283BA839D00004D6178696D756D206F70656E58
S123277C2076656C6F636974790000000000000000000000000000000000000000000000AA
S123279C000000000000000000000000000000004D43560000000000000283BA839D0001D3
S12327BC4D6178696D756D20636C6F73652076656C6F636974790000000000000000000056
S12327DC000000000000000000000000000000000000000000000000000000004D534700F2
S12327FC00000000000083BA839D00024D6178696D756D20616C6C6F7761626C65206669BA
S123281C6E6765722073747261696E0000000000000000000000000000000000000000003B
S123283C00000000000000004853470000000000000283BA839D0002486967686573742049
S123285C616C6C6F7761626C652066696E6765722073747261696E00000000000000000059
S123287C00000000000000000000000000000000000000004C53470000000000000283BA13
S123289C839D00214C6F7765737420616C6C6F7761626C652066696E676572207374726111
S12328BC696E00000000000000000000000000000000000000000000000000000000000021
S12328DC4453000000000000000283BA839D000344656661756C7420737465702073697AC8
S12328FC6520666F7220494F2F494300000000000000000000000000000000000000000079
S123291C0000000000000000000000004450000000000000000283BA839D00044465666130
S123293C756C7420706F736974696F6E20666F72204D0000000000000000000000000000B9
S123295C0000000000000000000000000000000000000000000000004C4356000000000072
S123297C000283BA839D0005466C61673A206C6F6F7020636F6E74726F6C20626C6F636BF9
S123299C20636F6E7461696E732076656C6F63697479000000000000000000000000000009
S12329BC000000004C43564300000000000283BA839D00064C4356206973206D756C74693E
S12329DC706C696564206279207468697320746F2067657420636F6E74726F6C2076656C0B
S12329FC6F6369747900000000000000000000004C43504700000000000283BA839D000703
S1232A1C466C61673A206C6F6F7020636F6E74726F6C20626C6F636B20636F6E7461696EB0
S1232A3C732070726F706F7274696F6E616C206761696E0000000000000000004C46560013
S1232A5C00000000000283BA839D0008466C61673A206C6F6F7020666565646261636B20FC
S1232A7C626C6F636B20636F6E7461696E732076656C6F636974790000000000000000001D
S1232A9C00000000000000004C46564300000000000283BA839D000956656C6F6369747934
S1232ABC2069732064697669646564206279207468697320746F20676574204C46560000C3
S1232ADC00000000000000000000000000000000000000004C46530000000000000283BAB2
S1232AFC839D000A466C61673A206C6F6F7020666565646261636B20626C6F636B20636F9C
S1232B1C6E7461696E732073747261696E0000000000000000000000000000000000000057
S1232B3C4C46415000000000000283BA839D000B466C61673A206C6F6F7020666565646244
S1232B5C61636B20626C6F636B20636F6E7461696E73206162736F6C75746520706F736922
S1232B7C74696F6E00000000000000004C46445000000000000283BA839D000C466C616770
S1232B9C3A206C6F6F7020666565646261636B20626C6F636B20636F6E7461696E7320648E
S1232BBC656C746120706F736974696F6E00000000000000000000004C4644504300000051
S1232BDC000283BA839D000D44656C746120706F736974696F6E2069732064697669646559
S1232BFC64206279207468697320746F20676574204C4644500000000000000000000000D5
S1232C1C000000004F440000000000000002BFCCBFF300004F646F6D657465723A20746F46
S1232C3C74616C206D6F746F7220636F756E74732064697669646564206279203130303051
S1232C5C000000000000000000000000000000004244415400000000000283BA839D001DBD
S1232C7C427265616B6177617920646574656374696F6E20616363656C65726174696F6EB4
S1232C9C207468726573686F6C6400000000000000000000000000000000000042440000A1
S1232CBC00000000000283BA839D001E466C61673A20627265616B6177617920646574652A
S1232CDC6374656420647572696E67206C617374206D6F74696F6E00000000000000000001
S1232CFC00000000000000004250000000000000000283BA839D001F506F736974696F6E4F
S1232D1C206F66206C61737420646574656374656420627265616B61776179000000000091
S1232D3C00000000000000000000000000000000000000004253000000000000000283BA9F
S1232D5C839D0020466C61673A206D6F746F722073686F756C642073746F70206966206208
S1232D7C7265616B617761792064657465637465640000000000000000000000000000007C
S1232D9C4956454C00000000000183BA839D0018496E697469616C697A6174696F6E20562F
S1232DBC656C6F6369747900000000000000000000000000000000000000000000000000FA
S1232DDC000000000000000000000000494F464600000000000183BA839D0019496E6974A4
S1232DFC69616C697A6174696F6E204F6666736574000000000000000000000000000000F8
S1232E1C000000000000000000000000000000000000000000000000494849540000000064
S1232E3C000183BA839D001A496E697469616C697A6174696F6E2073746F702068697420C7
S1232E5C636F756E7400000000000000000000000000000000000000000000000000000029
S1232E7C000000004F54000000000000000183BA839D001B4F70656E2054617267657420DD
S1232E9C706F736974696F6E0000000000000000000000000000000000000000000000009D
S1232EBC000000000000000000000000000000004354000000000000000183BA839D001CE1
S1232EDC436C6F73652054617267657420706F736974696F6E0000000000000000000000C0
S1232EFC0000000000000000000000000000000000000000000000000000000046504700D5
S1232F1C00000000000183BA839D000E50726F706F7274696F6E616C206761696E20666F68
S1232F3C72206D6F746F722066696C74657200000000000000000000000000000000000008
S1232F5C00000000000000004654504700000000000183BA839D0022546F727175652D6D86
S1232F7C6F64652070726F706F7274696F6E616C206761696E20666F72206D6F746F722019
S1232F9C66696C74657200000000000000000000000000004649500000000000000183BA6E
S1232FBC839D000F496E74656772616C20706F6C6520666F72206D6F746F722066696C7435
S1232FDC6572000000000000000000000000000000000000000000000000000000000000FA
S1232FFC46445A0000000000000183BA839D001044657269766174697665207A65726F204C
S123301C666F72206D6F746F722066696C7465720000000000000000000000000000000052
S123303C000000000000000000000000414343454C000000000183BA839D0011416363653D
S123305C6C65726174696F6E000000000000000000000000000000000000000000000000F2
S123307C0000000000000000000000000000000000000000000000004D504500000000004E
S123309C000183BA839D00124D617820646973742066726F6D206465736972656420706FD3
S12330BC73206265666F7265206572726F72000000000000000000000000000000000000A0
S12330DC000000005453544F50000000000183BA839D001354696D6520696E206D732062BD
S12330FC65666F7265206D6F746F7220636F6E736964657265642073746F707065640000EF
S123311C00000000000000000000000000000000484F4C4400000000000183BA839D0014F6
S123313C466C61673A206D6F746F722073686F756C6420686F6C6420706F736974696F6E5F
S123315C000000000000000000000000000000000000000000000000000000005347464C23
S123317C49500000000183BA839D0015466C61673A2073747261696E2067617567652076FF
S123319C616C756520726576657273656400000000000000000000000000000000000000E8
S12331BC0000000000000000454E000000000000000183BA839D0016466C61673A206D6F38
S12331DC746F722069732062792064656661756C742073656C656374656400000000000015
S12331FC000000000000000000000000000000000000000053414D504C450000000183BAAF
S123321C839D001753616D706C652074696D652072656769737465722076616C75652066DE
S123323C6F72204843544C2D31313030000000000000000000000000000000000000000053
S123325C00000000000000000000000000000000000000000000000000000000000000004E
S123327C00000000000000000000000000000000000000000000000000000000000000002E
S123329C00000000000000000000000054454D50000000000002C3200000000054656D705D
S12332BC657261747572652C20696E2074656E746873206F662061206465677265652043B8
S12332DC0000000000000000000000000000000000000000000000004C46540000000000E8
S12332FC0002B4F2B5130002466C61673A206C6F6F7020666565646261636B20626C6F63A9
S123331C6B20636F6E7461696E732074656D706572617475726500000000000000000000D5
S123333C000000004C464450440000000002B4F2B5130003466C61673A206C6F6F7020667C
S123335C6565646261636B2064656C746120706F73206F766572666C6F772064697363613A
S123337C726465640000000000000000000000004C4641494E0000000002B4F2B5130005AF
S123339C466C61673A206269746669656C64206F6620616E616C6F6720696E70757473208C
S12333BC41494E302D41494E33000000000000000000000000000000000000005054454D77
S12333DC500000000002BECFBF0800025065616B2074656D70657261747572652C20696EB3
S12333FC2074656E746873206F662061206465677265652043000000000000000000000092
S123341C00000000000000004F54454D500000000002B4F2B51300014F76657274656D7044
S123343C2074656D70657261747572652C20696E2074656E746873206F66206120646567FF
S123345C7265652043202830203D206E6F206D617829000055505345435300000002BECFEA
S123347CBF080003546F74616C20706F77657265642D75702074696D652C20696E2073654C
S123349C636F6E6473000000000000000000000000000000000000000000000000000000F5
S12334BC534E0000000000000002BECFBF08000153657269616C206E756D626572000000EB
S12334DC0000000000000000000000000000000000000000000000000000000000000000CC
S12334FC00000000000000000000000042415544000000000001B4F2B513000042617564A5
S123351C20726174652064697669646564206279203130300000000000000000000000001A
S123353C00000000000000000000000000000000000000000000000043434545000000005B
S123355C0001B4F2B5130004456E61626C652073746174757320636F6465206665656462FC
S123357C61636B2075706F6E20726563656976696E67205E432066726F6D20686F737400CB
S123359C000000004C4F434B000000000000BDE1BE6900000000000000000000000000001D
S12335BC0000000000000000000000000000000000000000000000000000000000000000EB
S12335DC0000000000000000000000000000000000000000000000000000000000000000CB
S12335FC0000000000000000000000000000000000000000000000000000000000000000AB
S123361C000000000000000000000000000000000000000000000000000000000A256C757A
S123363C2000256C7520000A000A25733A202573004F000000000000000002000184E74F7A
S123365C70656E000000000000000000000000000000000000000000000000000000000007
S123367C00000000000000000000000043000000000000000002000184EE436C6F7365007C
S123369C00000000000000000000000000000000000000000000000000000000000000000A
S12336BC00000000000000544F0000000000000002000184D9546F72717565204F70656EB5
S12336DC0000000000000000000000000000000000000000000000000000000000000000CA
S12336FC000054430000000000000002000184E0546F7271756520436C6F73650000000016
S123371C0000000000000000000000000000000000000000000000000000000000494F00F1
S123373C00000000000002000184F5496E6372656D656E74616C206F70656E0000000000A9
S123375C0000000000000000000000000000000000000000000000004943000000000000BD
S123377C0002000184FC496E6372656D656E74616C20636C6F7365000000000000000000FE
S123379C000000000000000000000000000000000000004D00000000000000000200018534
S12337BC034D6F766520746F20706F736974696F6E000000000000000000000000000000B7
S12337DC000000000000000000000000000054000000000000000002000185A45465726DB1
S12337FC696E617465206D6F746F7220706F776572000000000000000000000000000000FA
S123381C000000000000000000484F4D45000000000002000185D1476F20746F20686F6DE9
S123383C6520706F736974696F6E000000000000000000000000000000000000000000006E
S123385C000000004C4F4F500000000000020001968D5374617274206C6F6F7020636F6EA0
S123387C74726F6C000000000000000000000000000000000000000000000000000000481F
S123389C49000000000000000200018463496E697469616C697A6520616E6420676F2074E6
S12338BC6F20686F6D6500000000000000000000000000000000000000004653455400007E
S12338DC00000002000186345365742066696E67657220706172616D6574657273000000F0
S12338FC000000000000000000000000000000000000000000464745540000000000020080
S123391C0186A04765742066696E67657220706172616D6574657273000000000000000051
S123393C00000000000000000000000000000000464C4F41440000000002000187324C6F8A
S123395C61642066696E67657220706172616D657465727300000000000000000000000093
S123397C000000000000000000000046534156450000000002000187875361766520666923
S123399C6E67657220706172616D6574657273000000000000000000000000000000000007
S12339BC00000000000046444546000000000002000187D75365742066696E67657220701A
S12339DC6172616D657465727320746F2064656661756C74000000000000000000000000FB
S12339FC00464C49535400000000020000882C4C6973742066696E67657220706172616D07
S1233A1C65746572730000000000000000000000000000000000000000000000464C495335
S1233A3C545600000002000188464C6973742066696E67657220706172616D6574657220B3
S1233A5C76616C7565730000000000000000000000000000000000464C49535441000000F3
S1233A7C01000088794C69737420616C6C2066696E67657220706172616D65746572730040
S1233A9C000000000000000000000000000000000000464C495354415600000100018895CE
S1233ABC4C69737420616C6C2066696E67657220706172616D657465722076616C756573C5
S1233ADC0000000000000000000000000050534554000000000002000088C9536574206784
